{
  "contractName": "Supersymmetry",
  "abi": [
    {
      "inputs": [
        {
          "internalType": "address[5]",
          "name": "newAdmins",
          "type": "address[5]"
        }
      ],
      "payable": false,
      "stateMutability": "nonpayable",
      "type": "constructor"
    },
    {
      "anonymous": false,
      "inputs": [
        {
          "indexed": false,
          "internalType": "bytes32",
          "name": "requestHash",
          "type": "bytes32"
        },
        {
          "indexed": false,
          "internalType": "address",
          "name": "owner",
          "type": "address"
        },
        {
          "indexed": false,
          "internalType": "uint256",
          "name": "amount",
          "type": "uint256"
        }
      ],
      "name": "Mint",
      "type": "event"
    },
    {
      "anonymous": false,
      "inputs": [
        {
          "indexed": false,
          "internalType": "bytes32",
          "name": "requestHash",
          "type": "bytes32"
        },
        {
          "indexed": false,
          "internalType": "address",
          "name": "owner",
          "type": "address"
        },
        {
          "indexed": false,
          "internalType": "string",
          "name": "target",
          "type": "string"
        }
      ],
      "name": "NewRequest",
      "type": "event"
    },
    {
      "anonymous": false,
      "inputs": [
        {
          "indexed": false,
          "internalType": "bytes32",
          "name": "requestHash",
          "type": "bytes32"
        },
        {
          "indexed": false,
          "internalType": "address",
          "name": "owner",
          "type": "address"
        },
        {
          "indexed": false,
          "internalType": "uint256",
          "name": "amount",
          "type": "uint256"
        }
      ],
      "name": "Return",
      "type": "event"
    },
    {
      "anonymous": false,
      "inputs": [
        {
          "indexed": false,
          "internalType": "bytes32",
          "name": "requestHash",
          "type": "bytes32"
        },
        {
          "indexed": false,
          "internalType": "enum Supersymmetry.Status",
          "name": "status",
          "type": "uint8"
        }
      ],
      "name": "StatusChanged",
      "type": "event"
    },
    {
      "constant": true,
      "inputs": [
        {
          "internalType": "uint256",
          "name": "",
          "type": "uint256"
        }
      ],
      "name": "admins",
      "outputs": [
        {
          "internalType": "address",
          "name": "",
          "type": "address"
        }
      ],
      "payable": false,
      "stateMutability": "view",
      "type": "function"
    },
    {
      "constant": true,
      "inputs": [
        {
          "internalType": "bytes32",
          "name": "",
          "type": "bytes32"
        }
      ],
      "name": "requests",
      "outputs": [
        {
          "internalType": "enum Supersymmetry.Status",
          "name": "status",
          "type": "uint8"
        },
        {
          "internalType": "enum Supersymmetry.Type",
          "name": "rType",
          "type": "uint8"
        },
        {
          "internalType": "address",
          "name": "owner",
          "type": "address"
        },
        {
          "internalType": "uint256",
          "name": "height",
          "type": "uint256"
        },
        {
          "internalType": "string",
          "name": "target",
          "type": "string"
        },
        {
          "internalType": "uint256",
          "name": "tokenAmount",
          "type": "uint256"
        }
      ],
      "payable": false,
      "stateMutability": "view",
      "type": "function"
    },
    {
      "constant": true,
      "inputs": [],
      "name": "tokenAddress",
      "outputs": [
        {
          "internalType": "address",
          "name": "",
          "type": "address"
        }
      ],
      "payable": false,
      "stateMutability": "view",
      "type": "function"
    },
    {
      "constant": false,
      "inputs": [
        {
          "internalType": "string",
          "name": "recipient",
          "type": "string"
        },
        {
          "internalType": "uint256",
          "name": "amount",
          "type": "uint256"
        }
      ],
      "name": "createBurnRequest",
      "outputs": [
        {
          "internalType": "bytes32",
          "name": "",
          "type": "bytes32"
        }
      ],
      "payable": false,
      "stateMutability": "nonpayable",
      "type": "function"
    },
    {
      "constant": false,
      "inputs": [
        {
          "internalType": "string",
          "name": "sender",
          "type": "string"
        },
        {
          "internalType": "uint256",
          "name": "value",
          "type": "uint256"
        }
      ],
      "name": "createMintRequest",
      "outputs": [
        {
          "internalType": "bytes32",
          "name": "",
          "type": "bytes32"
        }
      ],
      "payable": false,
      "stateMutability": "nonpayable",
      "type": "function"
    },
    {
      "constant": false,
      "inputs": [
        {
          "internalType": "bytes32",
          "name": "requestHash",
          "type": "bytes32"
        },
        {
          "internalType": "uint8",
          "name": "intStatus",
          "type": "uint8"
        }
      ],
      "name": "changeStatusTest",
      "outputs": [],
      "payable": false,
      "stateMutability": "nonpayable",
      "type": "function"
    },
    {
      "constant": false,
      "inputs": [
        {
          "internalType": "bytes32",
          "name": "requestHash",
          "type": "bytes32"
        },
        {
          "internalType": "uint8[5]",
          "name": "v",
          "type": "uint8[5]"
        },
        {
          "internalType": "bytes32[5]",
          "name": "r",
          "type": "bytes32[5]"
        },
        {
          "internalType": "bytes32[5]",
          "name": "s",
          "type": "bytes32[5]"
        },
        {
          "internalType": "uint8",
          "name": "intStatus",
          "type": "uint8"
        }
      ],
      "name": "changeStatus",
      "outputs": [],
      "payable": false,
      "stateMutability": "nonpayable",
      "type": "function"
    }
  ],
  "bytecode": "0x60806040523480156200001157600080fd5b5060405162003c3e38038062003c3e833981810160405260a08110156200003757600080fd5b810190809190505080600090600562000052929190620000c6565b50604051620000619062000155565b604051809103906000f0801580156200007e573d6000803e3d6000fd5b50600160006101000a81548173ffffffffffffffffffffffffffffffffffffffff021916908373ffffffffffffffffffffffffffffffffffffffff16021790555050620001a9565b82805482825590600052602060002090810192821562000142579160200282015b82811115620001415782518260006101000a81548173ffffffffffffffffffffffffffffffffffffffff021916908373ffffffffffffffffffffffffffffffffffffffff16021790555091602001919060010190620000e7565b5b50905062000151919062000163565b5090565b61187280620023cc83390190565b620001a691905b80821115620001a257600081816101000a81549073ffffffffffffffffffffffffffffffffffffffff0219169055506001016200016a565b5090565b90565b61221380620001b96000396000f3fe608060405234801561001057600080fd5b506004361061007d5760003560e01c80639d76ea581161005b5780639d76ea58146102045780639d8669851461024e578063a841351014610360578063cfec5ce81461045f5761007d565b806314bfd6d0146100825780633922b40f146100f0578063983d6d9d1461012b575b600080fd5b6100ae6004803603602081101561009857600080fd5b8101908080359060200190929190505050610538565b604051808273ffffffffffffffffffffffffffffffffffffffff1673ffffffffffffffffffffffffffffffffffffffff16815260200191505060405180910390f35b6101296004803603604081101561010657600080fd5b8101908080359060200190929190803560ff169060200190929190505050610574565b005b6101ee6004803603604081101561014157600080fd5b810190808035906020019064010000000081111561015e57600080fd5b82018360208201111561017057600080fd5b8035906020019184600183028401116401000000008311171561019257600080fd5b91908080601f016020809104026020016040519081016040528093929190818152602001838380828437600081840152601f19601f82011690508083019250505050505050919291929080359060200190929190505050610c06565b6040518082815260200191505060405180910390f35b61020c61125e565b604051808273ffffffffffffffffffffffffffffffffffffffff1673ffffffffffffffffffffffffffffffffffffffff16815260200191505060405180910390f35b61027a6004803603602081101561026457600080fd5b8101908080359060200190929190505050611284565b6040518087600381111561028a57fe5b60ff16815260200186600181111561029e57fe5b60ff1681526020018573ffffffffffffffffffffffffffffffffffffffff1673ffffffffffffffffffffffffffffffffffffffff16815260200184815260200180602001838152602001828103825284818151815260200191508051906020019080838360005b83811015610320578082015181840152602081019050610305565b50505050905090810190601f16801561034d5780820380516001836020036101000a031916815260200191505b5097505050505050505060405180910390f35b61045d600480360361022081101561037757600080fd5b81019080803590602001909291908060a001906005806020026040519081016040528092919082600560200280828437600081840152601f19601f82011690508083019250505050505091929192908060a001906005806020026040519081016040528092919082600560200280828437600081840152601f19601f82011690508083019250505050505091929192908060a001906005806020026040519081016040528092919082600560200280828437600081840152601f19601f8201169050808301925050505050509192919290803560ff169060200190929190505050611392565b005b6105226004803603604081101561047557600080fd5b810190808035906020019064010000000081111561049257600080fd5b8201836020820111156104a457600080fd5b803590602001918460018302840111640100000000831117156104c657600080fd5b91908080601f016020809104026020016040519081016040528093929190818152602001838380828437600081840152601f19601f82011690508083019250505050505050919291929080359060200190929190505050611c67565b6040518082815260200191505060405180910390f35b6000818154811061054557fe5b906000526020600020016000915054906101000a900473ffffffffffffffffffffffffffffffffffffffff1681565b6001600381111561058157fe5b6002600084815260200190815260200160002060000160009054906101000a900460ff1660038111156105b057fe5b14610623576040517f08c379a00000000000000000000000000000000000000000000000000000000081526004018080602001828103825260118152602001807f737461747573206973206e6f77206e657700000000000000000000000000000081525060200191505060405180910390fd5b6000600381111561063057fe5b60ff168160ff1614156106ab576040517f08c379a000000000000000000000000000000000000000000000000000000000815260040180806020018281038252600e8152602001807f696e76616c69642073746174757300000000000000000000000000000000000081525060200191505060405180910390fd5b600160038111156106b857fe5b60ff168160ff161415610733576040517f08c379a000000000000000000000000000000000000000000000000000000000815260040180806020018281038252600e8152602001807f696e76616c69642073746174757300000000000000000000000000000000000081525060200191505060405180910390fd5b60008160ff16600381111561074457fe5b905060038081111561075257fe5b60ff168260ff1614156109485760018081111561076b57fe5b6002600085815260200190815260200160002060000160019054906101000a900460ff16600181111561079a57fe5b141561094357600160009054906101000a900473ffffffffffffffffffffffffffffffffffffffff1673ffffffffffffffffffffffffffffffffffffffff166340c10f196002600086815260200190815260200160002060000160029054906101000a900473ffffffffffffffffffffffffffffffffffffffff1660026000878152602001908152602001600020600301546040518363ffffffff1660e01b8152600401808373ffffffffffffffffffffffffffffffffffffffff1673ffffffffffffffffffffffffffffffffffffffff16815260200182815260200192505050602060405180830381600087803b15801561089557600080fd5b505af11580156108a9573d6000803e3d6000fd5b505050506040513d60208110156108bf57600080fd5b8101908080519060200190929190505050610942576040517f08c379a000000000000000000000000000000000000000000000000000000000815260040180806020018281038252600f8152602001807f696e76616c69642062616c616e6365000000000000000000000000000000000081525060200191505060405180910390fd5b5b610b7d565b6002600381111561095557fe5b60ff168260ff161415610b7c576000600181111561096f57fe5b6002600085815260200190815260200160002060000160019054906101000a900460ff16600181111561099e57fe5b1415610b7b57600160009054906101000a900473ffffffffffffffffffffffffffffffffffffffff1673ffffffffffffffffffffffffffffffffffffffff166323b872dd306002600087815260200190815260200160002060000160029054906101000a900473ffffffffffffffffffffffffffffffffffffffff1660026000888152602001908152602001600020600301546040518463ffffffff1660e01b8152600401808473ffffffffffffffffffffffffffffffffffffffff1673ffffffffffffffffffffffffffffffffffffffff1681526020018373ffffffffffffffffffffffffffffffffffffffff1673ffffffffffffffffffffffffffffffffffffffff1681526020018281526020019350505050602060405180830381600087803b158015610acd57600080fd5b505af1158015610ae1573d6000803e3d6000fd5b505050506040513d6020811015610af757600080fd5b8101908080519060200190929190505050610b7a576040517f08c379a000000000000000000000000000000000000000000000000000000000815260040180806020018281038252600f8152602001807f696e76616c69642062616c616e6365000000000000000000000000000000000081525060200191505060405180910390fd5b5b5b5b806002600085815260200190815260200160002060000160006101000a81548160ff02191690836003811115610baf57fe5b02179055507f22ce671cd3f328f71ef109d846af764df2d16bb8eb664c4f41065656c6e9962c838260405180838152602001826003811115610bed57fe5b60ff1681526020019250505060405180910390a1505050565b6000600160009054906101000a900473ffffffffffffffffffffffffffffffffffffffff1673ffffffffffffffffffffffffffffffffffffffff166323b872dd3330856040518463ffffffff1660e01b8152600401808473ffffffffffffffffffffffffffffffffffffffff1673ffffffffffffffffffffffffffffffffffffffff1681526020018373ffffffffffffffffffffffffffffffffffffffff1673ffffffffffffffffffffffffffffffffffffffff1681526020018281526020019350505050602060405180830381600087803b158015610ce557600080fd5b505af1158015610cf9573d6000803e3d6000fd5b505050506040513d6020811015610d0f57600080fd5b8101908080519060200190929190505050610d92576040517f08c379a000000000000000000000000000000000000000000000000000000000815260040180806020018281038252600f8152602001807f696e76616c69642062616c616e6365000000000000000000000000000000000081525060200191505060405180910390fd5b60008211610e08576040517f08c379a00000000000000000000000000000000000000000000000000000000081526004018080602001828103825260168152602001807f76616c7565206c657373206f7220657175616c7320300000000000000000000081525060200191505060405180910390fd5b600060023033868643604051602001808673ffffffffffffffffffffffffffffffffffffffff1673ffffffffffffffffffffffffffffffffffffffff1660601b81526014018573ffffffffffffffffffffffffffffffffffffffff1673ffffffffffffffffffffffffffffffffffffffff1660601b815260140184805190602001908083835b60208310610eb15780518252602082019150602081019050602083039250610e8e565b6001836020036101000a038019825116818451168082178552505050505050905001838152602001828152602001955050505050506040516020818303038152906040526040518082805190602001908083835b60208310610f285780518252602082019150602081019050602083039250610f05565b6001836020036101000a038019825116818451168082178552505050505050905001915050602060405180830381855afa158015610f6a573d6000803e3d6000fd5b5050506040513d6020811015610f7f57600080fd5b8101908080519060200190929190505050905060006003811115610f9f57fe5b6002600083815260200190815260200160002060000160009054906101000a900460ff166003811115610fce57fe5b14611041576040517f08c379a000000000000000000000000000000000000000000000000000000000815260040180806020018281038252600a8152602001807f737761702065786973740000000000000000000000000000000000000000000081525060200191505060405180910390fd5b6040518060c001604052806001600381111561105957fe5b81526020016000600181111561106b57fe5b81526020013373ffffffffffffffffffffffffffffffffffffffff168152602001438152602001858152602001848152506002600083815260200190815260200160002060008201518160000160006101000a81548160ff021916908360038111156110d357fe5b021790555060208201518160000160016101000a81548160ff021916908360018111156110fc57fe5b021790555060408201518160000160026101000a81548173ffffffffffffffffffffffffffffffffffffffff021916908373ffffffffffffffffffffffffffffffffffffffff16021790555060608201518160010155608082015181600201908051906020019061116e929190612139565b5060a082015181600301559050507fe5048cb72529de5404e374d7fdbda8558caeb479015b507903292cf51c115896813386604051808481526020018373ffffffffffffffffffffffffffffffffffffffff1673ffffffffffffffffffffffffffffffffffffffff16815260200180602001828103825283818151815260200191508051906020019080838360005b838110156112185780820151818401526020810190506111fd565b50505050905090810190601f1680156112455780820380516001836020036101000a031916815260200191505b5094505050505060405180910390a18091505092915050565b600160009054906101000a900473ffffffffffffffffffffffffffffffffffffffff1681565b60026020528060005260406000206000915090508060000160009054906101000a900460ff16908060000160019054906101000a900460ff16908060000160029054906101000a900473ffffffffffffffffffffffffffffffffffffffff1690806001015490806002018054600181600116156101000203166002900480601f0160208091040260200160405190810160405280929190818152602001828054600181600116156101000203166002900480156113825780601f1061135757610100808354040283529160200191611382565b820191906000526020600020905b81548152906001019060200180831161136557829003601f168201915b5050505050908060030154905086565b6001600381111561139f57fe5b6002600087815260200190815260200160002060000160009054906101000a900460ff1660038111156113ce57fe5b14611441576040517f08c379a00000000000000000000000000000000000000000000000000000000081526004018080602001828103825260118152602001807f737461747573206973206e6f77206e657700000000000000000000000000000081525060200191505060405180910390fd5b6000600381111561144e57fe5b60ff168160ff1614156114c9576040517f08c379a000000000000000000000000000000000000000000000000000000000815260040180806020018281038252600e8152602001807f696e76616c69642073746174757300000000000000000000000000000000000081525060200191505060405180910390fd5b600160038111156114d657fe5b60ff168160ff161415611551576040517f08c379a000000000000000000000000000000000000000000000000000000000815260040180806020018281038252600e8152602001807f696e76616c69642073746174757300000000000000000000000000000000000081525060200191505060405180910390fd5b600080905060008090505b600581101561174c576000818154811061157257fe5b9060005260206000200160009054906101000a900473ffffffffffffffffffffffffffffffffffffffff1673ffffffffffffffffffffffffffffffffffffffff1660018885604051602001808381526020018260ff1660ff1660f81b81526001019250505060405160208183030381529060405260405160200180807f19457468657265756d205369676e6564204d6573736167653a0a333300000000815250601c0182805190602001908083835b602083106116445780518252602082019150602081019050602083039250611621565b6001836020036101000a0380198251168184511680821785525050505050509050019150506040516020818303038152906040528051906020012088846005811061168b57fe5b602002015188856005811061169c57fe5b60200201518886600581106116ad57fe5b602002015160405160008152602001604052604051808581526020018460ff1660ff1681526020018381526020018281526020019450505050506020604051602081039080840390855afa158015611709573d6000803e3d6000fd5b5050506020604051035173ffffffffffffffffffffffffffffffffffffffff1614611735576000611738565b60015b60ff1682019150808060010191505061155c565b5060038112156117c4576040517f08c379a000000000000000000000000000000000000000000000000000000000815260040180806020018281038252601b8152602001807f61646d696e7320766f746520636f756e74206973206c6573732033000000000081525060200191505060405180910390fd5b60008260ff1660038111156117d557fe5b90506003808111156117e357fe5b60ff168360ff1614156119d9576001808111156117fc57fe5b6002600089815260200190815260200160002060000160019054906101000a900460ff16600181111561182b57fe5b14156119d457600160009054906101000a900473ffffffffffffffffffffffffffffffffffffffff1673ffffffffffffffffffffffffffffffffffffffff166340c10f19600260008a815260200190815260200160002060000160029054906101000a900473ffffffffffffffffffffffffffffffffffffffff16600260008b8152602001908152602001600020600301546040518363ffffffff1660e01b8152600401808373ffffffffffffffffffffffffffffffffffffffff1673ffffffffffffffffffffffffffffffffffffffff16815260200182815260200192505050602060405180830381600087803b15801561192657600080fd5b505af115801561193a573d6000803e3d6000fd5b505050506040513d602081101561195057600080fd5b81019080805190602001909291905050506119d3576040517f08c379a000000000000000000000000000000000000000000000000000000000815260040180806020018281038252600f8152602001807f696e76616c69642062616c616e6365000000000000000000000000000000000081525060200191505060405180910390fd5b5b611bda565b600260038111156119e657fe5b60ff168360ff161415611bd95760006001811115611a0057fe5b6002600089815260200190815260200160002060000160019054906101000a900460ff166001811115611a2f57fe5b1415611bd857600160009054906101000a900473ffffffffffffffffffffffffffffffffffffffff1673ffffffffffffffffffffffffffffffffffffffff1663a9059cbb600260008a815260200190815260200160002060000160029054906101000a900473ffffffffffffffffffffffffffffffffffffffff16600260008b8152602001908152602001600020600301546040518363ffffffff1660e01b8152600401808373ffffffffffffffffffffffffffffffffffffffff1673ffffffffffffffffffffffffffffffffffffffff16815260200182815260200192505050602060405180830381600087803b158015611b2a57600080fd5b505af1158015611b3e573d6000803e3d6000fd5b505050506040513d6020811015611b5457600080fd5b8101908080519060200190929190505050611bd7576040517f08c379a000000000000000000000000000000000000000000000000000000000815260040180806020018281038252600f8152602001807f696e76616c69642062616c616e6365000000000000000000000000000000000081525060200191505060405180910390fd5b5b5b5b806002600089815260200190815260200160002060000160006101000a81548160ff02191690836003811115611c0c57fe5b02179055507f22ce671cd3f328f71ef109d846af764df2d16bb8eb664c4f41065656c6e9962c878260405180838152602001826003811115611c4a57fe5b60ff1681526020019250505060405180910390a150505050505050565b600080339050600060023086848743604051602001808673ffffffffffffffffffffffffffffffffffffffff1673ffffffffffffffffffffffffffffffffffffffff1660601b815260140185805190602001908083835b60208310611ce15780518252602082019150602081019050602083039250611cbe565b6001836020036101000a0380198251168184511680821785525050505050509050018473ffffffffffffffffffffffffffffffffffffffff1673ffffffffffffffffffffffffffffffffffffffff1660601b8152601401838152602001828152602001955050505050506040516020818303038152906040526040518082805190602001908083835b60208310611d8d5780518252602082019150602081019050602083039250611d6a565b6001836020036101000a038019825116818451168082178552505050505050905001915050602060405180830381855afa158015611dcf573d6000803e3d6000fd5b5050506040513d6020811015611de457600080fd5b8101908080519060200190929190505050905060008411611e6d576040517f08c379a00000000000000000000000000000000000000000000000000000000081526004018080602001828103825260168152602001807f76616c7565206c657373206f7220657175616c7320300000000000000000000081525060200191505060405180910390fd5b60006003811115611e7a57fe5b6002600083815260200190815260200160002060000160009054906101000a900460ff166003811115611ea957fe5b14611f1c576040517f08c379a000000000000000000000000000000000000000000000000000000000815260040180806020018281038252600a8152602001807f737761702065786973740000000000000000000000000000000000000000000081525060200191505060405180910390fd5b6040518060c0016040528060016003811115611f3457fe5b8152602001600180811115611f4557fe5b81526020018373ffffffffffffffffffffffffffffffffffffffff168152602001438152602001868152602001858152506002600083815260200190815260200160002060008201518160000160006101000a81548160ff02191690836003811115611fad57fe5b021790555060208201518160000160016101000a81548160ff02191690836001811115611fd657fe5b021790555060408201518160000160026101000a81548173ffffffffffffffffffffffffffffffffffffffff021916908373ffffffffffffffffffffffffffffffffffffffff160217905550606082015181600101556080820151816002019080519060200190612048929190612139565b5060a082015181600301559050507fe5048cb72529de5404e374d7fdbda8558caeb479015b507903292cf51c115896818387604051808481526020018373ffffffffffffffffffffffffffffffffffffffff1673ffffffffffffffffffffffffffffffffffffffff16815260200180602001828103825283818151815260200191508051906020019080838360005b838110156120f25780820151818401526020810190506120d7565b50505050905090810190601f16801561211f5780820380516001836020036101000a031916815260200191505b5094505050505060405180910390a1809250505092915050565b828054600181600116156101000203166002900490600052602060002090601f016020900481019282601f1061217a57805160ff19168380011785556121a8565b828001600101855582156121a8579182015b828111156121a757825182559160200191906001019061218c565b5b5090506121b591906121b9565b5090565b6121db91905b808211156121d75760008160009055506001016121bf565b5090565b9056fea265627a7a723158203b9c0903c839e700db1cd804901e7acead648c5935325768ae4ab13154d4a57764736f6c634300050c0032608060405262000024620000186200002a60201b60201c565b6200003260201b60201c565b62000257565b600033905090565b6200004d8160036200009360201b620012a81790919060201c565b8073ffffffffffffffffffffffffffffffffffffffff167f6ae172837ea30b801fbfcdd4108aa1d5bf8ff775444fd70256b44e6bf3dfc3f660405160405180910390a250565b620000a582826200017760201b60201c565b1562000119576040517f08c379a000000000000000000000000000000000000000000000000000000000815260040180806020018281038252601f8152602001807f526f6c65733a206163636f756e7420616c72656164792068617320726f6c650081525060200191505060405180910390fd5b60018260000160008373ffffffffffffffffffffffffffffffffffffffff1673ffffffffffffffffffffffffffffffffffffffff16815260200190815260200160002060006101000a81548160ff0219169083151502179055505050565b60008073ffffffffffffffffffffffffffffffffffffffff168273ffffffffffffffffffffffffffffffffffffffff16141562000200576040517f08c379a0000000000000000000000000000000000000000000000000000000008152600401808060200182810382526022815260200180620018506022913960400191505060405180910390fd5b8260000160008373ffffffffffffffffffffffffffffffffffffffff1673ffffffffffffffffffffffffffffffffffffffff16815260200190815260200160002060009054906101000a900460ff16905092915050565b6115e980620002676000396000f3fe608060405234801561001057600080fd5b50600436106100b45760003560e01c8063983b2d5611610071578063983b2d56146102e7578063986502751461032b578063a457c2d714610335578063a9059cbb1461039b578063aa271e1a14610401578063dd62ed3e1461045d576100b4565b8063095ea7b3146100b957806318160ddd1461011f57806323b872dd1461013d57806339509351146101c357806340c10f191461022957806370a082311461028f575b600080fd5b610105600480360360408110156100cf57600080fd5b81019080803573ffffffffffffffffffffffffffffffffffffffff169060200190929190803590602001909291905050506104d5565b604051808215151515815260200191505060405180910390f35b6101276104f3565b6040518082815260200191505060405180910390f35b6101a96004803603606081101561015357600080fd5b81019080803573ffffffffffffffffffffffffffffffffffffffff169060200190929190803573ffffffffffffffffffffffffffffffffffffffff169060200190929190803590602001909291905050506104fd565b604051808215151515815260200191505060405180910390f35b61020f600480360360408110156101d957600080fd5b81019080803573ffffffffffffffffffffffffffffffffffffffff169060200190929190803590602001909291905050506105d6565b604051808215151515815260200191505060405180910390f35b6102756004803603604081101561023f57600080fd5b81019080803573ffffffffffffffffffffffffffffffffffffffff16906020019092919080359060200190929190505050610689565b604051808215151515815260200191505060405180910390f35b6102d1600480360360208110156102a557600080fd5b81019080803573ffffffffffffffffffffffffffffffffffffffff169060200190929190505050610704565b6040518082815260200191505060405180910390f35b610329600480360360208110156102fd57600080fd5b81019080803573ffffffffffffffffffffffffffffffffffffffff16906020019092919050505061074c565b005b6103336107bd565b005b6103816004803603604081101561034b57600080fd5b81019080803573ffffffffffffffffffffffffffffffffffffffff169060200190929190803590602001909291905050506107cf565b604051808215151515815260200191505060405180910390f35b6103e7600480360360408110156103b157600080fd5b81019080803573ffffffffffffffffffffffffffffffffffffffff1690602001909291908035906020019092919050505061089c565b604051808215151515815260200191505060405180910390f35b6104436004803603602081101561041757600080fd5b81019080803573ffffffffffffffffffffffffffffffffffffffff1690602001909291905050506108ba565b604051808215151515815260200191505060405180910390f35b6104bf6004803603604081101561047357600080fd5b81019080803573ffffffffffffffffffffffffffffffffffffffff169060200190929190803573ffffffffffffffffffffffffffffffffffffffff1690602001909291905050506108d7565b6040518082815260200191505060405180910390f35b60006104e96104e261095e565b8484610966565b6001905092915050565b6000600254905090565b600061050a848484610b5d565b6105cb8461051661095e565b6105c6856040518060600160405280602881526020016114fd60289139600160008b73ffffffffffffffffffffffffffffffffffffffff1673ffffffffffffffffffffffffffffffffffffffff168152602001908152602001600020600061057c61095e565b73ffffffffffffffffffffffffffffffffffffffff1673ffffffffffffffffffffffffffffffffffffffff16815260200190815260200160002054610e139092919063ffffffff16565b610966565b600190509392505050565b600061067f6105e361095e565b8461067a85600160006105f461095e565b73ffffffffffffffffffffffffffffffffffffffff1673ffffffffffffffffffffffffffffffffffffffff16815260200190815260200160002060008973ffffffffffffffffffffffffffffffffffffffff1673ffffffffffffffffffffffffffffffffffffffff16815260200190815260200160002054610ed390919063ffffffff16565b610966565b6001905092915050565b600061069b61069661095e565b6108ba565b6106f0576040517f08c379a00000000000000000000000000000000000000000000000000000000081526004018080602001828103825260308152602001806114ac6030913960400191505060405180910390fd5b6106fa8383610f5b565b6001905092915050565b60008060008373ffffffffffffffffffffffffffffffffffffffff1673ffffffffffffffffffffffffffffffffffffffff168152602001908152602001600020549050919050565b61075c61075761095e565b6108ba565b6107b1576040517f08c379a00000000000000000000000000000000000000000000000000000000081526004018080602001828103825260308152602001806114ac6030913960400191505060405180910390fd5b6107ba81611116565b50565b6107cd6107c861095e565b611170565b565b60006108926107dc61095e565b8461088d85604051806060016040528060258152602001611590602591396001600061080661095e565b73ffffffffffffffffffffffffffffffffffffffff1673ffffffffffffffffffffffffffffffffffffffff16815260200190815260200160002060008a73ffffffffffffffffffffffffffffffffffffffff1673ffffffffffffffffffffffffffffffffffffffff16815260200190815260200160002054610e139092919063ffffffff16565b610966565b6001905092915050565b60006108b06108a961095e565b8484610b5d565b6001905092915050565b60006108d08260036111ca90919063ffffffff16565b9050919050565b6000600160008473ffffffffffffffffffffffffffffffffffffffff1673ffffffffffffffffffffffffffffffffffffffff16815260200190815260200160002060008373ffffffffffffffffffffffffffffffffffffffff1673ffffffffffffffffffffffffffffffffffffffff16815260200190815260200160002054905092915050565b600033905090565b600073ffffffffffffffffffffffffffffffffffffffff168373ffffffffffffffffffffffffffffffffffffffff1614156109ec576040517f08c379a000000000000000000000000000000000000000000000000000000000815260040180806020018281038252602481526020018061156c6024913960400191505060405180910390fd5b600073ffffffffffffffffffffffffffffffffffffffff168273ffffffffffffffffffffffffffffffffffffffff161415610a72576040517f08c379a00000000000000000000000000000000000000000000000000000000081526004018080602001828103825260228152602001806114646022913960400191505060405180910390fd5b80600160008573ffffffffffffffffffffffffffffffffffffffff1673ffffffffffffffffffffffffffffffffffffffff16815260200190815260200160002060008473ffffffffffffffffffffffffffffffffffffffff1673ffffffffffffffffffffffffffffffffffffffff168152602001908152602001600020819055508173ffffffffffffffffffffffffffffffffffffffff168373ffffffffffffffffffffffffffffffffffffffff167f8c5be1e5ebec7d5bd14f71427d1e84f3dd0314c0f7b2291e5b200ac8c7c3b925836040518082815260200191505060405180910390a3505050565b600073ffffffffffffffffffffffffffffffffffffffff168373ffffffffffffffffffffffffffffffffffffffff161415610be3576040517f08c379a00000000000000000000000000000000000000000000000000000000081526004018080602001828103825260258152602001806115476025913960400191505060405180910390fd5b600073ffffffffffffffffffffffffffffffffffffffff168273ffffffffffffffffffffffffffffffffffffffff161415610c69576040517f08c379a00000000000000000000000000000000000000000000000000000000081526004018080602001828103825260238152602001806114416023913960400191505060405180910390fd5b610cd481604051806060016040528060268152602001611486602691396000808773ffffffffffffffffffffffffffffffffffffffff1673ffffffffffffffffffffffffffffffffffffffff16815260200190815260200160002054610e139092919063ffffffff16565b6000808573ffffffffffffffffffffffffffffffffffffffff1673ffffffffffffffffffffffffffffffffffffffff16815260200190815260200160002081905550610d67816000808573ffffffffffffffffffffffffffffffffffffffff1673ffffffffffffffffffffffffffffffffffffffff16815260200190815260200160002054610ed390919063ffffffff16565b6000808473ffffffffffffffffffffffffffffffffffffffff1673ffffffffffffffffffffffffffffffffffffffff168152602001908152602001600020819055508173ffffffffffffffffffffffffffffffffffffffff168373ffffffffffffffffffffffffffffffffffffffff167fddf252ad1be2c89b69c2b068fc378daa952ba7f163c4a11628f55a4df523b3ef836040518082815260200191505060405180910390a3505050565b6000838311158290610ec0576040517f08c379a00000000000000000000000000000000000000000000000000000000081526004018080602001828103825283818151815260200191508051906020019080838360005b83811015610e85578082015181840152602081019050610e6a565b50505050905090810190601f168015610eb25780820380516001836020036101000a031916815260200191505b509250505060405180910390fd5b5060008385039050809150509392505050565b600080828401905083811015610f51576040517f08c379a000000000000000000000000000000000000000000000000000000000815260040180806020018281038252601b8152602001807f536166654d6174683a206164646974696f6e206f766572666c6f77000000000081525060200191505060405180910390fd5b8091505092915050565b600073ffffffffffffffffffffffffffffffffffffffff168273ffffffffffffffffffffffffffffffffffffffff161415610ffe576040517f08c379a000000000000000000000000000000000000000000000000000000000815260040180806020018281038252601f8152602001807f45524332303a206d696e7420746f20746865207a65726f20616464726573730081525060200191505060405180910390fd5b61101381600254610ed390919063ffffffff16565b60028190555061106a816000808573ffffffffffffffffffffffffffffffffffffffff1673ffffffffffffffffffffffffffffffffffffffff16815260200190815260200160002054610ed390919063ffffffff16565b6000808473ffffffffffffffffffffffffffffffffffffffff1673ffffffffffffffffffffffffffffffffffffffff168152602001908152602001600020819055508173ffffffffffffffffffffffffffffffffffffffff16600073ffffffffffffffffffffffffffffffffffffffff167fddf252ad1be2c89b69c2b068fc378daa952ba7f163c4a11628f55a4df523b3ef836040518082815260200191505060405180910390a35050565b61112a8160036112a890919063ffffffff16565b8073ffffffffffffffffffffffffffffffffffffffff167f6ae172837ea30b801fbfcdd4108aa1d5bf8ff775444fd70256b44e6bf3dfc3f660405160405180910390a250565b61118481600361138390919063ffffffff16565b8073ffffffffffffffffffffffffffffffffffffffff167fe94479a9f7e1952cc78f2d6baab678adc1b772d936c6583def489e524cb6669260405160405180910390a250565b60008073ffffffffffffffffffffffffffffffffffffffff168273ffffffffffffffffffffffffffffffffffffffff161415611251576040517f08c379a00000000000000000000000000000000000000000000000000000000081526004018080602001828103825260228152602001806115256022913960400191505060405180910390fd5b8260000160008373ffffffffffffffffffffffffffffffffffffffff1673ffffffffffffffffffffffffffffffffffffffff16815260200190815260200160002060009054906101000a900460ff16905092915050565b6112b282826111ca565b15611325576040517f08c379a000000000000000000000000000000000000000000000000000000000815260040180806020018281038252601f8152602001807f526f6c65733a206163636f756e7420616c72656164792068617320726f6c650081525060200191505060405180910390fd5b60018260000160008373ffffffffffffffffffffffffffffffffffffffff1673ffffffffffffffffffffffffffffffffffffffff16815260200190815260200160002060006101000a81548160ff0219169083151502179055505050565b61138d82826111ca565b6113e2576040517f08c379a00000000000000000000000000000000000000000000000000000000081526004018080602001828103825260218152602001806114dc6021913960400191505060405180910390fd5b60008260000160008373ffffffffffffffffffffffffffffffffffffffff1673ffffffffffffffffffffffffffffffffffffffff16815260200190815260200160002060006101000a81548160ff021916908315150217905550505056fe45524332303a207472616e7366657220746f20746865207a65726f206164647265737345524332303a20617070726f766520746f20746865207a65726f206164647265737345524332303a207472616e7366657220616d6f756e7420657863656564732062616c616e63654d696e746572526f6c653a2063616c6c657220646f6573206e6f74206861766520746865204d696e74657220726f6c65526f6c65733a206163636f756e7420646f6573206e6f74206861766520726f6c6545524332303a207472616e7366657220616d6f756e74206578636565647320616c6c6f77616e6365526f6c65733a206163636f756e7420697320746865207a65726f206164647265737345524332303a207472616e736665722066726f6d20746865207a65726f206164647265737345524332303a20617070726f76652066726f6d20746865207a65726f206164647265737345524332303a2064656372656173656420616c6c6f77616e63652062656c6f77207a65726fa265627a7a723158204971241a5e1427dec3a98760cb80a90b97a5295c435cba1a868e84fda4e3c43b64736f6c634300050c0032526f6c65733a206163636f756e7420697320746865207a65726f2061646472657373",
  "source": "pragma solidity >=0.5.0 <0.6.3;\n\nimport \"./Token.sol\";\n\ncontract Supersymmetry {\n    enum Status {\n        None,\n        New,\n        Rejected,\n        Success\n    }\n\n    enum Type {\n        Burn,\n        Mint\n    }\n\n    struct Request {\n        Status status;\n        Type rType;\n        address owner;\n        uint256 height;\n        string target;\n        uint256 tokenAmount;\n    }\n\n    address[] public admins;\n    address public tokenAddress;\n\n    constructor(address[5] memory newAdmins) public {\n        admins = newAdmins;\n        tokenAddress = address(new Token());\n    }\n\n    event NewRequest(bytes32 requestHash, address owner, string target);\n    event StatusChanged(bytes32 requestHash, Status status);\n    event Mint(bytes32 requestHash, address owner, uint amount);\n    event Return(bytes32 requestHash, address owner, uint amount);\n\n    mapping(bytes32 => Request) public requests;\n\n    function createBurnRequest(string memory recipient, uint256 amount) public returns (bytes32) {\n        require(Token(tokenAddress).transferFrom(msg.sender, address(this), amount), \"invalid balance\");\n        require(amount > 0, \"value less or equals 0\");\n\n        bytes32 requestHash = sha256(abi.encodePacked(this, msg.sender, recipient, amount, block.number));\n        require(requests[requestHash].status == Status.None, \"swap exist\");\n\n        requests[requestHash] = Request(\n            {status: Status.New, rType: Type.Burn, owner: msg.sender, target: recipient, height: block.number, tokenAmount: amount });\n        emit NewRequest(requestHash, msg.sender, recipient);\n        return requestHash;\n    }\n\n    function createMintRequest(string memory sender, uint256 value) public returns (bytes32) {\n        address recipient = msg.sender;\n        bytes32 requestHash = sha256(abi.encodePacked(this, sender, recipient, value, block.number));\n        require(value > 0, \"value less or equals 0\");\n        require(requests[requestHash].status == Status.None, \"swap exist\");\n\n        requests[requestHash] = Request(\n            {status: Status.New, rType: Type.Mint, owner: recipient, height: block.number, target: sender, tokenAmount: value });\n        emit NewRequest(requestHash, recipient, sender);\n        return requestHash;\n    }\n\n    function changeStatusTest(bytes32 requestHash, uint8 intStatus) public {\n        require(requests[requestHash].status == Status.New, \"status is now new\");\n        require(intStatus != uint8(Status.None), \"invalid status\");\n        require(intStatus != uint8(Status.New), \"invalid status\");\n\n\n        Status status = Status(intStatus);\n        if (intStatus == uint8(Status.Success)) {\n            if (requests[requestHash].rType == Type.Mint) {\n                require(Token(tokenAddress).mint(requests[requestHash].owner, requests[requestHash].tokenAmount), \"invalid balance\");\n            }\n        } else if (intStatus == uint8(Status.Rejected)) {\n            if (requests[requestHash].rType == Type.Burn) {\n                require(Token(tokenAddress).transferFrom(address(this), requests[requestHash].owner, requests[requestHash].tokenAmount), \"invalid balance\");\n            }\n        }\n        requests[requestHash].status = status;\n        emit StatusChanged(requestHash, status);\n    }\n    function changeStatus(bytes32 requestHash, uint8[5] memory v, bytes32[5] memory r, bytes32[5] memory s, uint8 intStatus) public {\n        require(requests[requestHash].status == Status.New, \"status is now new\");\n        require(intStatus != uint8(Status.None), \"invalid status\");\n        require(intStatus != uint8(Status.New), \"invalid status\");\n\n        int count = 0;\n        for(uint i = 0; i < 5; i++) {\n            count += ecrecover(keccak256(abi.encodePacked(\"\\x19Ethereum Signed Message:\\n33\", abi.encodePacked(requestHash, intStatus))),\n                v[i], r[i], s[i]) == admins[i] ? 1 : 0;\n        }\n\n       require(count >= 3, \"admins vote count is less 3\");\n        Status status = Status(intStatus);\n        if (intStatus == uint8(Status.Success)) {\n            if (requests[requestHash].rType == Type.Mint) {\n                require(Token(tokenAddress).mint(requests[requestHash].owner, requests[requestHash].tokenAmount), \"invalid balance\");\n            }\n        } else if (intStatus == uint8(Status.Rejected)) {\n            if (requests[requestHash].rType == Type.Burn) {\n                require(Token(tokenAddress).transfer(requests[requestHash].owner, requests[requestHash].tokenAmount), \"invalid balance\");\n            }\n        }\n        requests[requestHash].status = status;\n        emit StatusChanged(requestHash, status);\n    }\n}",
  "sourcePath": "/home/anon/gitproject/gateway-contract/ethereum/contracts/Supersymmetry.sol",
  "compiler": {
    "name": "solc",
    "version": "0.5.12+commit.7709ece9.Emscripten.clang"
  },
  "schemaVersion": "3.0.20",
  "updatedAt": "2020-03-02T14:24:50.879Z",
  "devdoc": {
    "methods": {}
  },
  "userdoc": {
    "methods": {}
  }
}